{
  "contractName": "EnvToken",
  "abi": [
    {
      "inputs": [
        {
          "internalType": "uint256",
          "name": "_initialSupply",
          "type": "uint256"
        }
      ],
      "stateMutability": "nonpayable",
      "type": "constructor"
    },
    {
      "anonymous": false,
      "inputs": [
        {
          "indexed": true,
          "internalType": "address",
          "name": "_from",
          "type": "address"
        },
        {
          "indexed": true,
          "internalType": "address",
          "name": "_to",
          "type": "address"
        },
        {
          "indexed": false,
          "internalType": "uint256",
          "name": "_value",
          "type": "uint256"
        }
      ],
      "name": "Transfer",
      "type": "event"
    },
    {
      "inputs": [
        {
          "internalType": "address",
          "name": "",
          "type": "address"
        }
      ],
      "name": "balanceOf",
      "outputs": [
        {
          "internalType": "uint256",
          "name": "",
          "type": "uint256"
        }
      ],
      "stateMutability": "view",
      "type": "function",
      "constant": true
    },
    {
      "inputs": [],
      "name": "name",
      "outputs": [
        {
          "internalType": "string",
          "name": "",
          "type": "string"
        }
      ],
      "stateMutability": "view",
      "type": "function",
      "constant": true
    },
    {
      "inputs": [],
      "name": "standard",
      "outputs": [
        {
          "internalType": "string",
          "name": "",
          "type": "string"
        }
      ],
      "stateMutability": "view",
      "type": "function",
      "constant": true
    },
    {
      "inputs": [],
      "name": "symbol",
      "outputs": [
        {
          "internalType": "string",
          "name": "",
          "type": "string"
        }
      ],
      "stateMutability": "view",
      "type": "function",
      "constant": true
    },
    {
      "inputs": [],
      "name": "totalSupply",
      "outputs": [
        {
          "internalType": "uint256",
          "name": "",
          "type": "uint256"
        }
      ],
      "stateMutability": "view",
      "type": "function",
      "constant": true
    },
    {
      "inputs": [
        {
          "internalType": "address",
          "name": "_to",
          "type": "address"
        },
        {
          "internalType": "uint256",
          "name": "_value",
          "type": "uint256"
        }
      ],
      "name": "transfer",
      "outputs": [
        {
          "internalType": "bool",
          "name": "success",
          "type": "bool"
        }
      ],
      "stateMutability": "nonpayable",
      "type": "function"
    }
  ],
  "bytecode": "0x60806040526040518060400160405280600981526020017f454e5620546f6b656e0000000000000000000000000000000000000000000000815250600090805190602001906200005192919062000173565b506040518060400160405280600381526020017f454e560000000000000000000000000000000000000000000000000000000000815250600190805190602001906200009f92919062000173565b506040518060400160405280600e81526020017f454e5620546f6b656e2076312e3000000000000000000000000000000000000081525060029080519060200190620000ed92919062000173565b50348015620000fb57600080fd5b5060405162000aeb38038062000aeb833981810160405281019062000121919062000263565b80600460003373ffffffffffffffffffffffffffffffffffffffff1673ffffffffffffffffffffffffffffffffffffffff168152602001908152602001600020819055508060038190555050620002fa565b8280546200018190620002c4565b90600052602060002090601f016020900481019282620001a55760008555620001f1565b82601f10620001c057805160ff1916838001178555620001f1565b82800160010185558215620001f1579182015b82811115620001f0578251825591602001919060010190620001d3565b5b50905062000200919062000204565b5090565b5b808211156200021f57600081600090555060010162000205565b5090565b600080fd5b6000819050919050565b6200023d8162000228565b81146200024957600080fd5b50565b6000815190506200025d8162000232565b92915050565b6000602082840312156200027c576200027b62000223565b5b60006200028c848285016200024c565b91505092915050565b7f4e487b7100000000000000000000000000000000000000000000000000000000600052602260045260246000fd5b60006002820490506001821680620002dd57607f821691505b60208210811415620002f457620002f362000295565b5b50919050565b6107e1806200030a6000396000f3fe608060405234801561001057600080fd5b50600436106100625760003560e01c806306fdde031461006757806318160ddd146100855780635a3b7e42146100a357806370a08231146100c157806395d89b41146100f1578063a9059cbb1461010f575b600080fd5b61006f61013f565b60405161007c9190610509565b60405180910390f35b61008d6101cd565b60405161009a9190610544565b60405180910390f35b6100ab6101d3565b6040516100b89190610509565b60405180910390f35b6100db60048036038101906100d691906105c2565b610261565b6040516100e89190610544565b60405180910390f35b6100f9610279565b6040516101069190610509565b60405180910390f35b6101296004803603810190610124919061061b565b610307565b6040516101369190610676565b60405180910390f35b6000805461014c906106c0565b80601f0160208091040260200160405190810160405280929190818152602001828054610178906106c0565b80156101c55780601f1061019a576101008083540402835291602001916101c5565b820191906000526020600020905b8154815290600101906020018083116101a857829003601f168201915b505050505081565b60035481565b600280546101e0906106c0565b80601f016020809104026020016040519081016040528092919081815260200182805461020c906106c0565b80156102595780601f1061022e57610100808354040283529160200191610259565b820191906000526020600020905b81548152906001019060200180831161023c57829003601f168201915b505050505081565b60046020528060005260406000206000915090505481565b60018054610286906106c0565b80601f01602080910402602001604051908101604052809291908181526020018280546102b2906106c0565b80156102ff5780601f106102d4576101008083540402835291602001916102ff565b820191906000526020600020905b8154815290600101906020018083116102e257829003601f168201915b505050505081565b600081600460003373ffffffffffffffffffffffffffffffffffffffff1673ffffffffffffffffffffffffffffffffffffffff16815260200190815260200160002054101561035557600080fd5b81600460003373ffffffffffffffffffffffffffffffffffffffff1673ffffffffffffffffffffffffffffffffffffffff16815260200190815260200160002060008282546103a49190610721565b9250508190555081600460008573ffffffffffffffffffffffffffffffffffffffff1673ffffffffffffffffffffffffffffffffffffffff16815260200190815260200160002060008282546103fa9190610755565b925050819055508273ffffffffffffffffffffffffffffffffffffffff163373ffffffffffffffffffffffffffffffffffffffff167fddf252ad1be2c89b69c2b068fc378daa952ba7f163c4a11628f55a4df523b3ef8460405161045e9190610544565b60405180910390a36001905092915050565b600081519050919050565b600082825260208201905092915050565b60005b838110156104aa57808201518184015260208101905061048f565b838111156104b9576000848401525b50505050565b6000601f19601f8301169050919050565b60006104db82610470565b6104e5818561047b565b93506104f581856020860161048c565b6104fe816104bf565b840191505092915050565b6000602082019050818103600083015261052381846104d0565b905092915050565b6000819050919050565b61053e8161052b565b82525050565b60006020820190506105596000830184610535565b92915050565b600080fd5b600073ffffffffffffffffffffffffffffffffffffffff82169050919050565b600061058f82610564565b9050919050565b61059f81610584565b81146105aa57600080fd5b50565b6000813590506105bc81610596565b92915050565b6000602082840312156105d8576105d761055f565b5b60006105e6848285016105ad565b91505092915050565b6105f88161052b565b811461060357600080fd5b50565b600081359050610615816105ef565b92915050565b600080604083850312156106325761063161055f565b5b6000610640858286016105ad565b925050602061065185828601610606565b9150509250929050565b60008115159050919050565b6106708161065b565b82525050565b600060208201905061068b6000830184610667565b92915050565b7f4e487b7100000000000000000000000000000000000000000000000000000000600052602260045260246000fd5b600060028204905060018216806106d857607f821691505b602082108114156106ec576106eb610691565b5b50919050565b7f4e487b7100000000000000000000000000000000000000000000000000000000600052601160045260246000fd5b600061072c8261052b565b91506107378361052b565b92508282101561074a576107496106f2565b5b828203905092915050565b60006107608261052b565b915061076b8361052b565b9250827fffffffffffffffffffffffffffffffffffffffffffffffffffffffffffffffff038211156107a05761079f6106f2565b5b82820190509291505056fea2646970667358221220516b0f83719a58faf65fdcd0058c0b7fffba8c6f250f4ef8b37343cb8740116164736f6c634300080b0033",
  "immutableReferences": {},
  "source": "// SPDX-License-Identifier: MIT\npragma solidity 0.8.11;\n\ncontract EnvToken {\n    \n    string public name = \"ENV Token\";\n    string public symbol = \"ENV\";\n    string public standard = \"ENV Token v1.0\";\n    uint256 public totalSupply;\n\n    event Transfer(\n        address indexed _from,\n        address indexed _to,\n        uint256 _value\n    );\n    \n    mapping(address => uint256) public balanceOf;\n    \n    constructor(uint256 _initialSupply)  { \n        balanceOf[msg.sender] = _initialSupply;\n        totalSupply = _initialSupply;\n    }\n\n    function transfer(address _to, uint256 _value) public returns (bool success){\n        require(balanceOf[msg.sender] >= _value);\n\n        balanceOf[msg.sender] -= _value;\n        balanceOf[_to] += _value;\n\n        emit Transfer(msg.sender, _to, _value);\n\n        return true;\n    }\n}\n\n\n",
  "sourcePath": "/Users/sonali/Desktop/Pluang/token_sale/contracts/EnvToken.sol",
  "compiler": {
    "name": "solc",
    "version": "0.8.11+commit.d7f03943.Emscripten.clang"
  },
  "schemaVersion": "3.4.5",
  "updatedAt": "2022-03-03T02:45:38.027Z",
  "networkType": "ethereum",
  "devdoc": {
    "kind": "dev",
    "methods": {},
    "version": 1
  },
  "userdoc": {
    "kind": "user",
    "methods": {},
    "version": 1
  }
}