{
  "contractName": "EnvTokenSale",
  "abi": [
    {
      "inputs": [
        {
          "internalType": "contract EnvToken",
          "name": "_tokenContract",
          "type": "address"
        },
        {
          "internalType": "uint256",
          "name": "_tokenPrice",
          "type": "uint256"
        }
      ],
      "stateMutability": "nonpayable",
      "type": "constructor"
    },
    {
      "inputs": [],
      "name": "tokenContract",
      "outputs": [
        {
          "internalType": "contract EnvToken",
          "name": "",
          "type": "address"
        }
      ],
      "stateMutability": "view",
      "type": "function",
      "constant": true
    },
    {
      "inputs": [],
      "name": "tokenPrice",
      "outputs": [
        {
          "internalType": "uint256",
          "name": "",
          "type": "uint256"
        }
      ],
      "stateMutability": "view",
      "type": "function",
      "constant": true
    }
  ],
  "bytecode": "0x608060405234801561001057600080fd5b506040516103623803806103628339818101604052810190610032919061016c565b336000806101000a81548173ffffffffffffffffffffffffffffffffffffffff021916908373ffffffffffffffffffffffffffffffffffffffff16021790555081600160006101000a81548173ffffffffffffffffffffffffffffffffffffffff021916908373ffffffffffffffffffffffffffffffffffffffff1602179055508060028190555050506101ac565b600080fd5b600073ffffffffffffffffffffffffffffffffffffffff82169050919050565b60006100f1826100c6565b9050919050565b6000610103826100e6565b9050919050565b610113816100f8565b811461011e57600080fd5b50565b6000815190506101308161010a565b92915050565b6000819050919050565b61014981610136565b811461015457600080fd5b50565b60008151905061016681610140565b92915050565b60008060408385031215610183576101826100c1565b5b600061019185828601610121565b92505060206101a285828601610157565b9150509250929050565b6101a7806101bb6000396000f3fe608060405234801561001057600080fd5b50600436106100365760003560e01c806355a373d61461003b5780637ff9b59614610059575b600080fd5b610043610077565b6040516100509190610122565b60405180910390f35b61006161009d565b60405161006e9190610156565b60405180910390f35b600160009054906101000a900473ffffffffffffffffffffffffffffffffffffffff1681565b60025481565b600073ffffffffffffffffffffffffffffffffffffffff82169050919050565b6000819050919050565b60006100e86100e36100de846100a3565b6100c3565b6100a3565b9050919050565b60006100fa826100cd565b9050919050565b600061010c826100ef565b9050919050565b61011c81610101565b82525050565b60006020820190506101376000830184610113565b92915050565b6000819050919050565b6101508161013d565b82525050565b600060208201905061016b6000830184610147565b9291505056fea26469706673582212200eabc51e9bc68b5ccaf88646c2f883ebbd80d4e665fe84d0b66ff6a78c42dc4364736f6c634300080b0033",
  "immutableReferences": {},
  "source": "pragma solidity 0.8.11;\n\nimport \"./EnvToken.sol\";\n\ncontract EnvTokenSale {\n    address admin;\n    EnvToken public tokenContract;\n    uint256 public tokenPrice;\n\n    constructor (EnvToken _tokenContract, uint256 _tokenPrice) public {\n        admin = msg.sender;\n        tokenContract = _tokenContract;\n        tokenPrice = _tokenPrice;\n    }\n}",
  "sourcePath": "/Users/sonali/Desktop/Pluang/token_sale/contracts/EnvTokenSale.sol",
  "compiler": {
    "name": "solc",
    "version": "0.8.11+commit.d7f03943.Emscripten.clang"
  },
  "schemaVersion": "3.4.5",
  "updatedAt": "2022-03-03T18:24:24.431Z",
  "networkType": "ethereum",
  "devdoc": {
    "kind": "dev",
    "methods": {},
    "version": 1
  },
  "userdoc": {
    "kind": "user",
    "methods": {},
    "version": 1
  }
}